{
	"contracts/simpleContract.sol": {
		"SimpleContract": {
			"abi": [
				{
					"inputs": [
						{
							"internalType": "uint256",
							"name": "a",
							"type": "uint256"
						},
						{
							"internalType": "uint256",
							"name": "b",
							"type": "uint256"
						}
					],
					"name": "divideNumbers",
					"outputs": [],
					"stateMutability": "nonpayable",
					"type": "function"
				},
				{
					"inputs": [],
					"name": "getDividedNum",
					"outputs": [
						{
							"internalType": "uint256",
							"name": "",
							"type": "uint256"
						}
					],
					"stateMutability": "view",
					"type": "function"
				},
				{
					"inputs": [],
					"name": "getFullName",
					"outputs": [
						{
							"internalType": "string",
							"name": "",
							"type": "string"
						}
					],
					"stateMutability": "view",
					"type": "function"
				},
				{
					"inputs": [],
					"name": "getSumOfNumbers",
					"outputs": [
						{
							"internalType": "uint256",
							"name": "",
							"type": "uint256"
						}
					],
					"stateMutability": "view",
					"type": "function"
				},
				{
					"inputs": [
						{
							"internalType": "string",
							"name": "name",
							"type": "string"
						}
					],
					"name": "storeName",
					"outputs": [],
					"stateMutability": "nonpayable",
					"type": "function"
				},
				{
					"inputs": [
						{
							"internalType": "uint256",
							"name": "a",
							"type": "uint256"
						},
						{
							"internalType": "uint256",
							"name": "b",
							"type": "uint256"
						}
					],
					"name": "sumNumbers",
					"outputs": [],
					"stateMutability": "nonpayable",
					"type": "function"
				}
			],
			"devdoc": {
				"kind": "dev",
				"methods": {
					"divideNumbers(uint256,uint256)": {
						"details": "accept two numbers then divide and store the result"
					},
					"getDividedNum()": {
						"details": "retrieves the divided result from the state"
					},
					"getFullName()": {
						"details": "returns fullName form the state"
					},
					"getSumOfNumbers()": {
						"details": "retrieves the sum of two vales"
					},
					"storeName(string)": {
						"details": "modifies name / changes state"
					},
					"sumNumbers(uint256,uint256)": {
						"details": "recieves two positive intergers sum them up and save the result "
					}
				},
				"version": 1
			},
			"evm": {
				"assembly": "    /* \"contracts/simpleContract.sol\":66:1189  contract SimpleContract {... */\n  mstore(0x40, 0x80)\n  callvalue\n  dup1\n  iszero\n  tag_1\n  jumpi\n  0x00\n  dup1\n  revert\ntag_1:\n  pop\n  dataSize(sub_0)\n  dup1\n  dataOffset(sub_0)\n  0x00\n  codecopy\n  0x00\n  return\nstop\n\nsub_0: assembly {\n        /* \"contracts/simpleContract.sol\":66:1189  contract SimpleContract {... */\n      mstore(0x40, 0x80)\n      callvalue\n      dup1\n      iszero\n      tag_1\n      jumpi\n      0x00\n      dup1\n      revert\n    tag_1:\n      pop\n      jumpi(tag_2, lt(calldatasize, 0x04))\n      shr(0xe0, calldataload(0x00))\n      dup1\n      0x063cfccb\n      eq\n      tag_3\n      jumpi\n      dup1\n      0x1fe38673\n      eq\n      tag_4\n      jumpi\n      dup1\n      0x37e8c8a0\n      eq\n      tag_5\n      jumpi\n      dup1\n      0x4a17cbab\n      eq\n      tag_6\n      jumpi\n      dup1\n      0x8c160186\n      eq\n      tag_7\n      jumpi\n      dup1\n      0x8fce12ed\n      eq\n      tag_8\n      jumpi\n    tag_2:\n      0x00\n      dup1\n      revert\n        /* \"contracts/simpleContract.sol\":230:312  function storeName (string memory name) external  {... */\n    tag_3:\n      tag_9\n      0x04\n      dup1\n      calldatasize\n      sub\n      dup2\n      add\n      swap1\n      tag_10\n      swap2\n      swap1\n      tag_11\n      jump\t// in\n    tag_10:\n      tag_12\n      jump\t// in\n    tag_9:\n      stop\n        /* \"contracts/simpleContract.sol\":566:659  function sumNumbers (uint256 a, uint256 b) external  {... */\n    tag_4:\n      tag_13\n      0x04\n      dup1\n      calldatasize\n      sub\n      dup2\n      add\n      swap1\n      tag_14\n      swap2\n      swap1\n      tag_15\n      jump\t// in\n    tag_14:\n      tag_16\n      jump\t// in\n    tag_13:\n      stop\n        /* \"contracts/simpleContract.sol\":723:823  function getSumOfNumbers () public  view  returns (uint256) {... */\n    tag_5:\n      tag_17\n      tag_18\n      jump\t// in\n    tag_17:\n      mload(0x40)\n      tag_19\n      swap2\n      swap1\n      tag_20\n      jump\t// in\n    tag_19:\n      mload(0x40)\n      dup1\n      swap2\n      sub\n      swap1\n      return\n        /* \"contracts/simpleContract.sol\":1077:1177  function getDividedNum() public view returns  (uint256) {... */\n    tag_6:\n      tag_21\n      tag_22\n      jump\t// in\n    tag_21:\n      mload(0x40)\n      tag_23\n      swap2\n      swap1\n      tag_20\n      jump\t// in\n    tag_23:\n      mload(0x40)\n      dup1\n      swap2\n      sub\n      swap1\n      return\n        /* \"contracts/simpleContract.sol\":377:469  function getFullName() public view returns (string memory) {... */\n    tag_7:\n      tag_24\n      tag_25\n      jump\t// in\n    tag_24:\n      mload(0x40)\n      tag_26\n      swap2\n      swap1\n      tag_27\n      jump\t// in\n    tag_26:\n      mload(0x40)\n      dup1\n      swap2\n      sub\n      swap1\n      return\n        /* \"contracts/simpleContract.sol\":908:999  function divideNumbers (uint256 a, uint256 b) external  {... */\n    tag_8:\n      tag_28\n      0x04\n      dup1\n      calldatasize\n      sub\n      dup2\n      add\n      swap1\n      tag_29\n      swap2\n      swap1\n      tag_15\n      jump\t// in\n    tag_29:\n      tag_30\n      jump\t// in\n    tag_28:\n      stop\n        /* \"contracts/simpleContract.sol\":230:312  function storeName (string memory name) external  {... */\n    tag_12:\n        /* \"contracts/simpleContract.sol\":301:305  name */\n      dup1\n        /* \"contracts/simpleContract.sol\":290:298  fullName */\n      0x00\n        /* \"contracts/simpleContract.sol\":290:305  fullName = name */\n      swap1\n      dup2\n      tag_32\n      swap2\n      swap1\n      tag_33\n      jump\t// in\n    tag_32:\n      pop\n        /* \"contracts/simpleContract.sol\":230:312  function storeName (string memory name) external  {... */\n      pop\n      jump\t// out\n        /* \"contracts/simpleContract.sol\":566:659  function sumNumbers (uint256 a, uint256 b) external  {... */\n    tag_16:\n        /* \"contracts/simpleContract.sol\":651:652  b */\n      dup1\n        /* \"contracts/simpleContract.sol\":647:648  a */\n      dup3\n        /* \"contracts/simpleContract.sol\":647:652  a + b */\n      tag_35\n      swap2\n      swap1\n      tag_36\n      jump\t// in\n    tag_35:\n        /* \"contracts/simpleContract.sol\":629:644  sumOfTwoNumbers */\n      0x01\n        /* \"contracts/simpleContract.sol\":629:652  sumOfTwoNumbers = a + b */\n      dup2\n      swap1\n      sstore\n      pop\n        /* \"contracts/simpleContract.sol\":566:659  function sumNumbers (uint256 a, uint256 b) external  {... */\n      pop\n      pop\n      jump\t// out\n        /* \"contracts/simpleContract.sol\":723:823  function getSumOfNumbers () public  view  returns (uint256) {... */\n    tag_18:\n        /* \"contracts/simpleContract.sol\":774:781  uint256 */\n      0x00\n        /* \"contracts/simpleContract.sol\":801:816  sumOfTwoNumbers */\n      sload(0x01)\n        /* \"contracts/simpleContract.sol\":793:816  return  sumOfTwoNumbers */\n      swap1\n      pop\n        /* \"contracts/simpleContract.sol\":723:823  function getSumOfNumbers () public  view  returns (uint256) {... */\n      swap1\n      jump\t// out\n        /* \"contracts/simpleContract.sol\":1077:1177  function getDividedNum() public view returns  (uint256) {... */\n    tag_22:\n        /* \"contracts/simpleContract.sol\":1124:1131  uint256 */\n      0x00\n        /* \"contracts/simpleContract.sol\":1151:1161  dividedNum */\n      sload(0x02)\n        /* \"contracts/simpleContract.sol\":1143:1161  return  dividedNum */\n      swap1\n      pop\n        /* \"contracts/simpleContract.sol\":1077:1177  function getDividedNum() public view returns  (uint256) {... */\n      swap1\n      jump\t// out\n        /* \"contracts/simpleContract.sol\":377:469  function getFullName() public view returns (string memory) {... */\n    tag_25:\n        /* \"contracts/simpleContract.sol\":421:434  string memory */\n      0x60\n        /* \"contracts/simpleContract.sol\":454:462  fullName */\n      0x00\n        /* \"contracts/simpleContract.sol\":446:462  return  fullName */\n      dup1\n      sload\n      tag_40\n      swap1\n      tag_41\n      jump\t// in\n    tag_40:\n      dup1\n      0x1f\n      add\n      0x20\n      dup1\n      swap2\n      div\n      mul\n      0x20\n      add\n      mload(0x40)\n      swap1\n      dup2\n      add\n      0x40\n      mstore\n      dup1\n      swap3\n      swap2\n      swap1\n      dup2\n      dup2\n      mstore\n      0x20\n      add\n      dup3\n      dup1\n      sload\n      tag_42\n      swap1\n      tag_41\n      jump\t// in\n    tag_42:\n      dup1\n      iszero\n      tag_43\n      jumpi\n      dup1\n      0x1f\n      lt\n      tag_44\n      jumpi\n      0x0100\n      dup1\n      dup4\n      sload\n      div\n      mul\n      dup4\n      mstore\n      swap2\n      0x20\n      add\n      swap2\n      jump(tag_43)\n    tag_44:\n      dup3\n      add\n      swap2\n      swap1\n      0x00\n      mstore\n      keccak256(0x00, 0x20)\n      swap1\n    tag_45:\n      dup2\n      sload\n      dup2\n      mstore\n      swap1\n      0x01\n      add\n      swap1\n      0x20\n      add\n      dup1\n      dup4\n      gt\n      tag_45\n      jumpi\n      dup3\n      swap1\n      sub\n      0x1f\n      and\n      dup3\n      add\n      swap2\n    tag_43:\n      pop\n      pop\n      pop\n      pop\n      pop\n      swap1\n      pop\n        /* \"contracts/simpleContract.sol\":377:469  function getFullName() public view returns (string memory) {... */\n      swap1\n      jump\t// out\n        /* \"contracts/simpleContract.sol\":908:999  function divideNumbers (uint256 a, uint256 b) external  {... */\n    tag_30:\n        /* \"contracts/simpleContract.sol\":991:992  b */\n      dup1\n        /* \"contracts/simpleContract.sol\":987:988  a */\n      dup3\n        /* \"contracts/simpleContract.sol\":987:992  a / b */\n      tag_47\n      swap2\n      swap1\n      tag_48\n      jump\t// in\n    tag_47:\n        /* \"contracts/simpleContract.sol\":974:984  dividedNum */\n      0x02\n        /* \"contracts/simpleContract.sol\":974:992  dividedNum = a / b */\n      dup2\n      swap1\n      sstore\n      pop\n        /* \"contracts/simpleContract.sol\":908:999  function divideNumbers (uint256 a, uint256 b) external  {... */\n      pop\n      pop\n      jump\t// out\n        /* \"#utility.yul\":7:82   */\n    tag_49:\n        /* \"#utility.yul\":40:46   */\n      0x00\n        /* \"#utility.yul\":73:75   */\n      0x40\n        /* \"#utility.yul\":67:76   */\n      mload\n        /* \"#utility.yul\":57:76   */\n      swap1\n      pop\n        /* \"#utility.yul\":7:82   */\n      swap1\n      jump\t// out\n        /* \"#utility.yul\":88:205   */\n    tag_50:\n        /* \"#utility.yul\":197:198   */\n      0x00\n        /* \"#utility.yul\":194:195   */\n      dup1\n        /* \"#utility.yul\":187:199   */\n      revert\n        /* \"#utility.yul\":211:328   */\n    tag_51:\n        /* \"#utility.yul\":320:321   */\n      0x00\n        /* \"#utility.yul\":317:318   */\n      dup1\n        /* \"#utility.yul\":310:322   */\n      revert\n        /* \"#utility.yul\":334:451   */\n    tag_52:\n        /* \"#utility.yul\":443:444   */\n      0x00\n        /* \"#utility.yul\":440:441   */\n      dup1\n        /* \"#utility.yul\":433:445   */\n      revert\n        /* \"#utility.yul\":457:574   */\n    tag_53:\n        /* \"#utility.yul\":566:567   */\n      0x00\n        /* \"#utility.yul\":563:564   */\n      dup1\n        /* \"#utility.yul\":556:568   */\n      revert\n        /* \"#utility.yul\":580:682   */\n    tag_54:\n        /* \"#utility.yul\":621:627   */\n      0x00\n        /* \"#utility.yul\":672:674   */\n      0x1f\n        /* \"#utility.yul\":668:675   */\n      not\n        /* \"#utility.yul\":663:665   */\n      0x1f\n        /* \"#utility.yul\":656:661   */\n      dup4\n        /* \"#utility.yul\":652:666   */\n      add\n        /* \"#utility.yul\":648:676   */\n      and\n        /* \"#utility.yul\":638:676   */\n      swap1\n      pop\n        /* \"#utility.yul\":580:682   */\n      swap2\n      swap1\n      pop\n      jump\t// out\n        /* \"#utility.yul\":688:868   */\n    tag_55:\n        /* \"#utility.yul\":736:813   */\n      0x4e487b7100000000000000000000000000000000000000000000000000000000\n        /* \"#utility.yul\":733:734   */\n      0x00\n        /* \"#utility.yul\":726:814   */\n      mstore\n        /* \"#utility.yul\":833:837   */\n      0x41\n        /* \"#utility.yul\":830:831   */\n      0x04\n        /* \"#utility.yul\":823:838   */\n      mstore\n        /* \"#utility.yul\":857:861   */\n      0x24\n        /* \"#utility.yul\":854:855   */\n      0x00\n        /* \"#utility.yul\":847:862   */\n      revert\n        /* \"#utility.yul\":874:1155   */\n    tag_56:\n        /* \"#utility.yul\":957:984   */\n      tag_97\n        /* \"#utility.yul\":979:983   */\n      dup3\n        /* \"#utility.yul\":957:984   */\n      tag_54\n      jump\t// in\n    tag_97:\n        /* \"#utility.yul\":949:955   */\n      dup2\n        /* \"#utility.yul\":945:985   */\n      add\n        /* \"#utility.yul\":1087:1093   */\n      dup2\n        /* \"#utility.yul\":1075:1085   */\n      dup2\n        /* \"#utility.yul\":1072:1094   */\n      lt\n        /* \"#utility.yul\":1051:1069   */\n      0xffffffffffffffff\n        /* \"#utility.yul\":1039:1049   */\n      dup3\n        /* \"#utility.yul\":1036:1070   */\n      gt\n        /* \"#utility.yul\":1033:1095   */\n      or\n        /* \"#utility.yul\":1030:1118   */\n      iszero\n      tag_98\n      jumpi\n        /* \"#utility.yul\":1098:1116   */\n      tag_99\n      tag_55\n      jump\t// in\n    tag_99:\n        /* \"#utility.yul\":1030:1118   */\n    tag_98:\n        /* \"#utility.yul\":1138:1148   */\n      dup1\n        /* \"#utility.yul\":1134:1136   */\n      0x40\n        /* \"#utility.yul\":1127:1149   */\n      mstore\n        /* \"#utility.yul\":917:1155   */\n      pop\n        /* \"#utility.yul\":874:1155   */\n      pop\n      pop\n      jump\t// out\n        /* \"#utility.yul\":1161:1290   */\n    tag_57:\n        /* \"#utility.yul\":1195:1201   */\n      0x00\n        /* \"#utility.yul\":1222:1242   */\n      tag_101\n      tag_49\n      jump\t// in\n    tag_101:\n        /* \"#utility.yul\":1212:1242   */\n      swap1\n      pop\n        /* \"#utility.yul\":1251:1284   */\n      tag_102\n        /* \"#utility.yul\":1279:1283   */\n      dup3\n        /* \"#utility.yul\":1271:1277   */\n      dup3\n        /* \"#utility.yul\":1251:1284   */\n      tag_56\n      jump\t// in\n    tag_102:\n        /* \"#utility.yul\":1161:1290   */\n      swap2\n      swap1\n      pop\n      jump\t// out\n        /* \"#utility.yul\":1296:1604   */\n    tag_58:\n        /* \"#utility.yul\":1358:1362   */\n      0x00\n        /* \"#utility.yul\":1448:1466   */\n      0xffffffffffffffff\n        /* \"#utility.yul\":1440:1446   */\n      dup3\n        /* \"#utility.yul\":1437:1467   */\n      gt\n        /* \"#utility.yul\":1434:1490   */\n      iszero\n      tag_104\n      jumpi\n        /* \"#utility.yul\":1470:1488   */\n      tag_105\n      tag_55\n      jump\t// in\n    tag_105:\n        /* \"#utility.yul\":1434:1490   */\n    tag_104:\n        /* \"#utility.yul\":1508:1537   */\n      tag_106\n        /* \"#utility.yul\":1530:1536   */\n      dup3\n        /* \"#utility.yul\":1508:1537   */\n      tag_54\n      jump\t// in\n    tag_106:\n        /* \"#utility.yul\":1500:1537   */\n      swap1\n      pop\n        /* \"#utility.yul\":1592:1596   */\n      0x20\n        /* \"#utility.yul\":1586:1590   */\n      dup2\n        /* \"#utility.yul\":1582:1597   */\n      add\n        /* \"#utility.yul\":1574:1597   */\n      swap1\n      pop\n        /* \"#utility.yul\":1296:1604   */\n      swap2\n      swap1\n      pop\n      jump\t// out\n        /* \"#utility.yul\":1610:1756   */\n    tag_59:\n        /* \"#utility.yul\":1707:1713   */\n      dup3\n        /* \"#utility.yul\":1702:1705   */\n      dup2\n        /* \"#utility.yul\":1697:1700   */\n      dup4\n        /* \"#utility.yul\":1684:1714   */\n      calldatacopy\n        /* \"#utility.yul\":1748:1749   */\n      0x00\n        /* \"#utility.yul\":1739:1745   */\n      dup4\n        /* \"#utility.yul\":1734:1737   */\n      dup4\n        /* \"#utility.yul\":1730:1746   */\n      add\n        /* \"#utility.yul\":1723:1750   */\n      mstore\n        /* \"#utility.yul\":1610:1756   */\n      pop\n      pop\n      pop\n      jump\t// out\n        /* \"#utility.yul\":1762:2187   */\n    tag_60:\n        /* \"#utility.yul\":1840:1845   */\n      0x00\n        /* \"#utility.yul\":1865:1931   */\n      tag_109\n        /* \"#utility.yul\":1881:1930   */\n      tag_110\n        /* \"#utility.yul\":1923:1929   */\n      dup5\n        /* \"#utility.yul\":1881:1930   */\n      tag_58\n      jump\t// in\n    tag_110:\n        /* \"#utility.yul\":1865:1931   */\n      tag_57\n      jump\t// in\n    tag_109:\n        /* \"#utility.yul\":1856:1931   */\n      swap1\n      pop\n        /* \"#utility.yul\":1954:1960   */\n      dup3\n        /* \"#utility.yul\":1947:1952   */\n      dup2\n        /* \"#utility.yul\":1940:1961   */\n      mstore\n        /* \"#utility.yul\":1992:1996   */\n      0x20\n        /* \"#utility.yul\":1985:1990   */\n      dup2\n        /* \"#utility.yul\":1981:1997   */\n      add\n        /* \"#utility.yul\":2030:2033   */\n      dup5\n        /* \"#utility.yul\":2021:2027   */\n      dup5\n        /* \"#utility.yul\":2016:2019   */\n      dup5\n        /* \"#utility.yul\":2012:2028   */\n      add\n        /* \"#utility.yul\":2009:2034   */\n      gt\n        /* \"#utility.yul\":2006:2118   */\n      iszero\n      tag_111\n      jumpi\n        /* \"#utility.yul\":2037:2116   */\n      tag_112\n      tag_53\n      jump\t// in\n    tag_112:\n        /* \"#utility.yul\":2006:2118   */\n    tag_111:\n        /* \"#utility.yul\":2127:2181   */\n      tag_113\n        /* \"#utility.yul\":2174:2180   */\n      dup5\n        /* \"#utility.yul\":2169:2172   */\n      dup3\n        /* \"#utility.yul\":2164:2167   */\n      dup6\n        /* \"#utility.yul\":2127:2181   */\n      tag_59\n      jump\t// in\n    tag_113:\n        /* \"#utility.yul\":1846:2187   */\n      pop\n        /* \"#utility.yul\":1762:2187   */\n      swap4\n      swap3\n      pop\n      pop\n      pop\n      jump\t// out\n        /* \"#utility.yul\":2207:2547   */\n    tag_61:\n        /* \"#utility.yul\":2263:2268   */\n      0x00\n        /* \"#utility.yul\":2312:2315   */\n      dup3\n        /* \"#utility.yul\":2305:2309   */\n      0x1f\n        /* \"#utility.yul\":2297:2303   */\n      dup4\n        /* \"#utility.yul\":2293:2310   */\n      add\n        /* \"#utility.yul\":2289:2316   */\n      slt\n        /* \"#utility.yul\":2279:2401   */\n      tag_115\n      jumpi\n        /* \"#utility.yul\":2320:2399   */\n      tag_116\n      tag_52\n      jump\t// in\n    tag_116:\n        /* \"#utility.yul\":2279:2401   */\n    tag_115:\n        /* \"#utility.yul\":2437:2443   */\n      dup2\n        /* \"#utility.yul\":2424:2444   */\n      calldataload\n        /* \"#utility.yul\":2462:2541   */\n      tag_117\n        /* \"#utility.yul\":2537:2540   */\n      dup5\n        /* \"#utility.yul\":2529:2535   */\n      dup3\n        /* \"#utility.yul\":2522:2526   */\n      0x20\n        /* \"#utility.yul\":2514:2520   */\n      dup7\n        /* \"#utility.yul\":2510:2527   */\n      add\n        /* \"#utility.yul\":2462:2541   */\n      tag_60\n      jump\t// in\n    tag_117:\n        /* \"#utility.yul\":2453:2541   */\n      swap2\n      pop\n        /* \"#utility.yul\":2269:2547   */\n      pop\n        /* \"#utility.yul\":2207:2547   */\n      swap3\n      swap2\n      pop\n      pop\n      jump\t// out\n        /* \"#utility.yul\":2553:3062   */\n    tag_11:\n        /* \"#utility.yul\":2622:2628   */\n      0x00\n        /* \"#utility.yul\":2671:2673   */\n      0x20\n        /* \"#utility.yul\":2659:2668   */\n      dup3\n        /* \"#utility.yul\":2650:2657   */\n      dup5\n        /* \"#utility.yul\":2646:2669   */\n      sub\n        /* \"#utility.yul\":2642:2674   */\n      slt\n        /* \"#utility.yul\":2639:2758   */\n      iszero\n      tag_119\n      jumpi\n        /* \"#utility.yul\":2677:2756   */\n      tag_120\n      tag_50\n      jump\t// in\n    tag_120:\n        /* \"#utility.yul\":2639:2758   */\n    tag_119:\n        /* \"#utility.yul\":2825:2826   */\n      0x00\n        /* \"#utility.yul\":2814:2823   */\n      dup3\n        /* \"#utility.yul\":2810:2827   */\n      add\n        /* \"#utility.yul\":2797:2828   */\n      calldataload\n        /* \"#utility.yul\":2855:2873   */\n      0xffffffffffffffff\n        /* \"#utility.yul\":2847:2853   */\n      dup2\n        /* \"#utility.yul\":2844:2874   */\n      gt\n        /* \"#utility.yul\":2841:2958   */\n      iszero\n      tag_121\n      jumpi\n        /* \"#utility.yul\":2877:2956   */\n      tag_122\n      tag_51\n      jump\t// in\n    tag_122:\n        /* \"#utility.yul\":2841:2958   */\n    tag_121:\n        /* \"#utility.yul\":2982:3045   */\n      tag_123\n        /* \"#utility.yul\":3037:3044   */\n      dup5\n        /* \"#utility.yul\":3028:3034   */\n      dup3\n        /* \"#utility.yul\":3017:3026   */\n      dup6\n        /* \"#utility.yul\":3013:3035   */\n      add\n        /* \"#utility.yul\":2982:3045   */\n      tag_61\n      jump\t// in\n    tag_123:\n        /* \"#utility.yul\":2972:3045   */\n      swap2\n      pop\n        /* \"#utility.yul\":2768:3055   */\n      pop\n        /* \"#utility.yul\":2553:3062   */\n      swap3\n      swap2\n      pop\n      pop\n      jump\t// out\n        /* \"#utility.yul\":3068:3145   */\n    tag_62:\n        /* \"#utility.yul\":3105:3112   */\n      0x00\n        /* \"#utility.yul\":3134:3139   */\n      dup2\n        /* \"#utility.yul\":3123:3139   */\n      swap1\n      pop\n        /* \"#utility.yul\":3068:3145   */\n      swap2\n      swap1\n      pop\n      jump\t// out\n        /* \"#utility.yul\":3151:3273   */\n    tag_63:\n        /* \"#utility.yul\":3224:3248   */\n      tag_126\n        /* \"#utility.yul\":3242:3247   */\n      dup2\n        /* \"#utility.yul\":3224:3248   */\n      tag_62\n      jump\t// in\n    tag_126:\n        /* \"#utility.yul\":3217:3222   */\n      dup2\n        /* \"#utility.yul\":3214:3249   */\n      eq\n        /* \"#utility.yul\":3204:3267   */\n      tag_127\n      jumpi\n        /* \"#utility.yul\":3263:3264   */\n      0x00\n        /* \"#utility.yul\":3260:3261   */\n      dup1\n        /* \"#utility.yul\":3253:3265   */\n      revert\n        /* \"#utility.yul\":3204:3267   */\n    tag_127:\n        /* \"#utility.yul\":3151:3273   */\n      pop\n      jump\t// out\n        /* \"#utility.yul\":3279:3418   */\n    tag_64:\n        /* \"#utility.yul\":3325:3330   */\n      0x00\n        /* \"#utility.yul\":3363:3369   */\n      dup2\n        /* \"#utility.yul\":3350:3370   */\n      calldataload\n        /* \"#utility.yul\":3341:3370   */\n      swap1\n      pop\n        /* \"#utility.yul\":3379:3412   */\n      tag_129\n        /* \"#utility.yul\":3406:3411   */\n      dup2\n        /* \"#utility.yul\":3379:3412   */\n      tag_63\n      jump\t// in\n    tag_129:\n        /* \"#utility.yul\":3279:3418   */\n      swap3\n      swap2\n      pop\n      pop\n      jump\t// out\n        /* \"#utility.yul\":3424:3898   */\n    tag_15:\n        /* \"#utility.yul\":3492:3498   */\n      0x00\n        /* \"#utility.yul\":3500:3506   */\n      dup1\n        /* \"#utility.yul\":3549:3551   */\n      0x40\n        /* \"#utility.yul\":3537:3546   */\n      dup4\n        /* \"#utility.yul\":3528:3535   */\n      dup6\n        /* \"#utility.yul\":3524:3547   */\n      sub\n        /* \"#utility.yul\":3520:3552   */\n      slt\n        /* \"#utility.yul\":3517:3636   */\n      iszero\n      tag_131\n      jumpi\n        /* \"#utility.yul\":3555:3634   */\n      tag_132\n      tag_50\n      jump\t// in\n    tag_132:\n        /* \"#utility.yul\":3517:3636   */\n    tag_131:\n        /* \"#utility.yul\":3675:3676   */\n      0x00\n        /* \"#utility.yul\":3700:3753   */\n      tag_133\n        /* \"#utility.yul\":3745:3752   */\n      dup6\n        /* \"#utility.yul\":3736:3742   */\n      dup3\n        /* \"#utility.yul\":3725:3734   */\n      dup7\n        /* \"#utility.yul\":3721:3743   */\n      add\n        /* \"#utility.yul\":3700:3753   */\n      tag_64\n      jump\t// in\n    tag_133:\n        /* \"#utility.yul\":3690:3753   */\n      swap3\n      pop\n        /* \"#utility.yul\":3646:3763   */\n      pop\n        /* \"#utility.yul\":3802:3804   */\n      0x20\n        /* \"#utility.yul\":3828:3881   */\n      tag_134\n        /* \"#utility.yul\":3873:3880   */\n      dup6\n        /* \"#utility.yul\":3864:3870   */\n      dup3\n        /* \"#utility.yul\":3853:3862   */\n      dup7\n        /* \"#utility.yul\":3849:3871   */\n      add\n        /* \"#utility.yul\":3828:3881   */\n      tag_64\n      jump\t// in\n    tag_134:\n        /* \"#utility.yul\":3818:3881   */\n      swap2\n      pop\n        /* \"#utility.yul\":3773:3891   */\n      pop\n        /* \"#utility.yul\":3424:3898   */\n      swap3\n      pop\n      swap3\n      swap1\n      pop\n      jump\t// out\n        /* \"#utility.yul\":3904:4022   */\n    tag_65:\n        /* \"#utility.yul\":3991:4015   */\n      tag_136\n        /* \"#utility.yul\":4009:4014   */\n      dup2\n        /* \"#utility.yul\":3991:4015   */\n      tag_62\n      jump\t// in\n    tag_136:\n        /* \"#utility.yul\":3986:3989   */\n      dup3\n        /* \"#utility.yul\":3979:4016   */\n      mstore\n        /* \"#utility.yul\":3904:4022   */\n      pop\n      pop\n      jump\t// out\n        /* \"#utility.yul\":4028:4250   */\n    tag_20:\n        /* \"#utility.yul\":4121:4125   */\n      0x00\n        /* \"#utility.yul\":4159:4161   */\n      0x20\n        /* \"#utility.yul\":4148:4157   */\n      dup3\n        /* \"#utility.yul\":4144:4162   */\n      add\n        /* \"#utility.yul\":4136:4162   */\n      swap1\n      pop\n        /* \"#utility.yul\":4172:4243   */\n      tag_138\n        /* \"#utility.yul\":4240:4241   */\n      0x00\n        /* \"#utility.yul\":4229:4238   */\n      dup4\n        /* \"#utility.yul\":4225:4242   */\n      add\n        /* \"#utility.yul\":4216:4222   */\n      dup5\n        /* \"#utility.yul\":4172:4243   */\n      tag_65\n      jump\t// in\n    tag_138:\n        /* \"#utility.yul\":4028:4250   */\n      swap3\n      swap2\n      pop\n      pop\n      jump\t// out\n        /* \"#utility.yul\":4256:4355   */\n    tag_66:\n        /* \"#utility.yul\":4308:4314   */\n      0x00\n        /* \"#utility.yul\":4342:4347   */\n      dup2\n        /* \"#utility.yul\":4336:4348   */\n      mload\n        /* \"#utility.yul\":4326:4348   */\n      swap1\n      pop\n        /* \"#utility.yul\":4256:4355   */\n      swap2\n      swap1\n      pop\n      jump\t// out\n        /* \"#utility.yul\":4361:4530   */\n    tag_67:\n        /* \"#utility.yul\":4445:4456   */\n      0x00\n        /* \"#utility.yul\":4479:4485   */\n      dup3\n        /* \"#utility.yul\":4474:4477   */\n      dup3\n        /* \"#utility.yul\":4467:4486   */\n      mstore\n        /* \"#utility.yul\":4519:4523   */\n      0x20\n        /* \"#utility.yul\":4514:4517   */\n      dup3\n        /* \"#utility.yul\":4510:4524   */\n      add\n        /* \"#utility.yul\":4495:4524   */\n      swap1\n      pop\n        /* \"#utility.yul\":4361:4530   */\n      swap3\n      swap2\n      pop\n      pop\n      jump\t// out\n        /* \"#utility.yul\":4536:4782   */\n    tag_68:\n        /* \"#utility.yul\":4617:4618   */\n      0x00\n        /* \"#utility.yul\":4627:4740   */\n    tag_142:\n        /* \"#utility.yul\":4641:4647   */\n      dup4\n        /* \"#utility.yul\":4638:4639   */\n      dup2\n        /* \"#utility.yul\":4635:4648   */\n      lt\n        /* \"#utility.yul\":4627:4740   */\n      iszero\n      tag_144\n      jumpi\n        /* \"#utility.yul\":4726:4727   */\n      dup1\n        /* \"#utility.yul\":4721:4724   */\n      dup3\n        /* \"#utility.yul\":4717:4728   */\n      add\n        /* \"#utility.yul\":4711:4729   */\n      mload\n        /* \"#utility.yul\":4707:4708   */\n      dup2\n        /* \"#utility.yul\":4702:4705   */\n      dup5\n        /* \"#utility.yul\":4698:4709   */\n      add\n        /* \"#utility.yul\":4691:4730   */\n      mstore\n        /* \"#utility.yul\":4663:4665   */\n      0x20\n        /* \"#utility.yul\":4660:4661   */\n      dup2\n        /* \"#utility.yul\":4656:4666   */\n      add\n        /* \"#utility.yul\":4651:4666   */\n      swap1\n      pop\n        /* \"#utility.yul\":4627:4740   */\n      jump(tag_142)\n    tag_144:\n        /* \"#utility.yul\":4774:4775   */\n      0x00\n        /* \"#utility.yul\":4765:4771   */\n      dup5\n        /* \"#utility.yul\":4760:4763   */\n      dup5\n        /* \"#utility.yul\":4756:4772   */\n      add\n        /* \"#utility.yul\":4749:4776   */\n      mstore\n        /* \"#utility.yul\":4598:4782   */\n      pop\n        /* \"#utility.yul\":4536:4782   */\n      pop\n      pop\n      pop\n      jump\t// out\n        /* \"#utility.yul\":4788:5165   */\n    tag_69:\n        /* \"#utility.yul\":4876:4879   */\n      0x00\n        /* \"#utility.yul\":4904:4943   */\n      tag_146\n        /* \"#utility.yul\":4937:4942   */\n      dup3\n        /* \"#utility.yul\":4904:4943   */\n      tag_66\n      jump\t// in\n    tag_146:\n        /* \"#utility.yul\":4959:5030   */\n      tag_147\n        /* \"#utility.yul\":5023:5029   */\n      dup2\n        /* \"#utility.yul\":5018:5021   */\n      dup6\n        /* \"#utility.yul\":4959:5030   */\n      tag_67\n      jump\t// in\n    tag_147:\n        /* \"#utility.yul\":4952:5030   */\n      swap4\n      pop\n        /* \"#utility.yul\":5039:5104   */\n      tag_148\n        /* \"#utility.yul\":5097:5103   */\n      dup2\n        /* \"#utility.yul\":5092:5095   */\n      dup6\n        /* \"#utility.yul\":5085:5089   */\n      0x20\n        /* \"#utility.yul\":5078:5083   */\n      dup7\n        /* \"#utility.yul\":5074:5090   */\n      add\n        /* \"#utility.yul\":5039:5104   */\n      tag_68\n      jump\t// in\n    tag_148:\n        /* \"#utility.yul\":5129:5158   */\n      tag_149\n        /* \"#utility.yul\":5151:5157   */\n      dup2\n        /* \"#utility.yul\":5129:5158   */\n      tag_54\n      jump\t// in\n    tag_149:\n        /* \"#utility.yul\":5124:5127   */\n      dup5\n        /* \"#utility.yul\":5120:5159   */\n      add\n        /* \"#utility.yul\":5113:5159   */\n      swap2\n      pop\n        /* \"#utility.yul\":4880:5165   */\n      pop\n        /* \"#utility.yul\":4788:5165   */\n      swap3\n      swap2\n      pop\n      pop\n      jump\t// out\n        /* \"#utility.yul\":5171:5484   */\n    tag_27:\n        /* \"#utility.yul\":5284:5288   */\n      0x00\n        /* \"#utility.yul\":5322:5324   */\n      0x20\n        /* \"#utility.yul\":5311:5320   */\n      dup3\n        /* \"#utility.yul\":5307:5325   */\n      add\n        /* \"#utility.yul\":5299:5325   */\n      swap1\n      pop\n        /* \"#utility.yul\":5371:5380   */\n      dup2\n        /* \"#utility.yul\":5365:5369   */\n      dup2\n        /* \"#utility.yul\":5361:5381   */\n      sub\n        /* \"#utility.yul\":5357:5358   */\n      0x00\n        /* \"#utility.yul\":5346:5355   */\n      dup4\n        /* \"#utility.yul\":5342:5359   */\n      add\n        /* \"#utility.yul\":5335:5382   */\n      mstore\n        /* \"#utility.yul\":5399:5477   */\n      tag_151\n        /* \"#utility.yul\":5472:5476   */\n      dup2\n        /* \"#utility.yul\":5463:5469   */\n      dup5\n        /* \"#utility.yul\":5399:5477   */\n      tag_69\n      jump\t// in\n    tag_151:\n        /* \"#utility.yul\":5391:5477   */\n      swap1\n      pop\n        /* \"#utility.yul\":5171:5484   */\n      swap3\n      swap2\n      pop\n      pop\n      jump\t// out\n        /* \"#utility.yul\":5490:5670   */\n    tag_70:\n        /* \"#utility.yul\":5538:5615   */\n      0x4e487b7100000000000000000000000000000000000000000000000000000000\n        /* \"#utility.yul\":5535:5536   */\n      0x00\n        /* \"#utility.yul\":5528:5616   */\n      mstore\n        /* \"#utility.yul\":5635:5639   */\n      0x22\n        /* \"#utility.yul\":5632:5633   */\n      0x04\n        /* \"#utility.yul\":5625:5640   */\n      mstore\n        /* \"#utility.yul\":5659:5663   */\n      0x24\n        /* \"#utility.yul\":5656:5657   */\n      0x00\n        /* \"#utility.yul\":5649:5664   */\n      revert\n        /* \"#utility.yul\":5676:5996   */\n    tag_41:\n        /* \"#utility.yul\":5720:5726   */\n      0x00\n        /* \"#utility.yul\":5757:5758   */\n      0x02\n        /* \"#utility.yul\":5751:5755   */\n      dup3\n        /* \"#utility.yul\":5747:5759   */\n      div\n        /* \"#utility.yul\":5737:5759   */\n      swap1\n      pop\n        /* \"#utility.yul\":5804:5805   */\n      0x01\n        /* \"#utility.yul\":5798:5802   */\n      dup3\n        /* \"#utility.yul\":5794:5806   */\n      and\n        /* \"#utility.yul\":5825:5843   */\n      dup1\n        /* \"#utility.yul\":5815:5896   */\n      tag_154\n      jumpi\n        /* \"#utility.yul\":5881:5885   */\n      0x7f\n        /* \"#utility.yul\":5873:5879   */\n      dup3\n        /* \"#utility.yul\":5869:5886   */\n      and\n        /* \"#utility.yul\":5859:5886   */\n      swap2\n      pop\n        /* \"#utility.yul\":5815:5896   */\n    tag_154:\n        /* \"#utility.yul\":5943:5945   */\n      0x20\n        /* \"#utility.yul\":5935:5941   */\n      dup3\n        /* \"#utility.yul\":5932:5946   */\n      lt\n        /* \"#utility.yul\":5912:5930   */\n      dup2\n        /* \"#utility.yul\":5909:5947   */\n      sub\n        /* \"#utility.yul\":5906:5990   */\n      tag_155\n      jumpi\n        /* \"#utility.yul\":5962:5980   */\n      tag_156\n      tag_70\n      jump\t// in\n    tag_156:\n        /* \"#utility.yul\":5906:5990   */\n    tag_155:\n        /* \"#utility.yul\":5727:5996   */\n      pop\n        /* \"#utility.yul\":5676:5996   */\n      swap2\n      swap1\n      pop\n      jump\t// out\n        /* \"#utility.yul\":6002:6143   */\n    tag_71:\n        /* \"#utility.yul\":6051:6055   */\n      0x00\n        /* \"#utility.yul\":6074:6077   */\n      dup2\n        /* \"#utility.yul\":6066:6077   */\n      swap1\n      pop\n        /* \"#utility.yul\":6097:6100   */\n      dup2\n        /* \"#utility.yul\":6094:6095   */\n      0x00\n        /* \"#utility.yul\":6087:6101   */\n      mstore\n        /* \"#utility.yul\":6131:6135   */\n      0x20\n        /* \"#utility.yul\":6128:6129   */\n      0x00\n        /* \"#utility.yul\":6118:6136   */\n      keccak256\n        /* \"#utility.yul\":6110:6136   */\n      swap1\n      pop\n        /* \"#utility.yul\":6002:6143   */\n      swap2\n      swap1\n      pop\n      jump\t// out\n        /* \"#utility.yul\":6149:6242   */\n    tag_72:\n        /* \"#utility.yul\":6186:6192   */\n      0x00\n        /* \"#utility.yul\":6233:6235   */\n      0x20\n        /* \"#utility.yul\":6228:6230   */\n      0x1f\n        /* \"#utility.yul\":6221:6226   */\n      dup4\n        /* \"#utility.yul\":6217:6231   */\n      add\n        /* \"#utility.yul\":6213:6236   */\n      div\n        /* \"#utility.yul\":6203:6236   */\n      swap1\n      pop\n        /* \"#utility.yul\":6149:6242   */\n      swap2\n      swap1\n      pop\n      jump\t// out\n        /* \"#utility.yul\":6248:6355   */\n    tag_73:\n        /* \"#utility.yul\":6292:6300   */\n      0x00\n        /* \"#utility.yul\":6342:6347   */\n      dup3\n        /* \"#utility.yul\":6336:6340   */\n      dup3\n        /* \"#utility.yul\":6332:6348   */\n      shl\n        /* \"#utility.yul\":6311:6348   */\n      swap1\n      pop\n        /* \"#utility.yul\":6248:6355   */\n      swap3\n      swap2\n      pop\n      pop\n      jump\t// out\n        /* \"#utility.yul\":6361:6754   */\n    tag_74:\n        /* \"#utility.yul\":6430:6436   */\n      0x00\n        /* \"#utility.yul\":6480:6481   */\n      0x08\n        /* \"#utility.yul\":6468:6478   */\n      dup4\n        /* \"#utility.yul\":6464:6482   */\n      mul\n        /* \"#utility.yul\":6503:6600   */\n      tag_161\n        /* \"#utility.yul\":6533:6599   */\n      0xffffffffffffffffffffffffffffffffffffffffffffffffffffffffffffffff\n        /* \"#utility.yul\":6522:6531   */\n      dup3\n        /* \"#utility.yul\":6503:6600   */\n      tag_73\n      jump\t// in\n    tag_161:\n        /* \"#utility.yul\":6621:6660   */\n      tag_162\n        /* \"#utility.yul\":6651:6659   */\n      dup7\n        /* \"#utility.yul\":6640:6649   */\n      dup4\n        /* \"#utility.yul\":6621:6660   */\n      tag_73\n      jump\t// in\n    tag_162:\n        /* \"#utility.yul\":6609:6660   */\n      swap6\n      pop\n        /* \"#utility.yul\":6693:6697   */\n      dup1\n        /* \"#utility.yul\":6689:6698   */\n      not\n        /* \"#utility.yul\":6682:6687   */\n      dup5\n        /* \"#utility.yul\":6678:6699   */\n      and\n        /* \"#utility.yul\":6669:6699   */\n      swap4\n      pop\n        /* \"#utility.yul\":6742:6746   */\n      dup1\n        /* \"#utility.yul\":6732:6740   */\n      dup7\n        /* \"#utility.yul\":6728:6747   */\n      and\n        /* \"#utility.yul\":6721:6726   */\n      dup5\n        /* \"#utility.yul\":6718:6748   */\n      or\n        /* \"#utility.yul\":6708:6748   */\n      swap3\n      pop\n        /* \"#utility.yul\":6437:6754   */\n      pop\n      pop\n        /* \"#utility.yul\":6361:6754   */\n      swap4\n      swap3\n      pop\n      pop\n      pop\n      jump\t// out\n        /* \"#utility.yul\":6760:6820   */\n    tag_75:\n        /* \"#utility.yul\":6788:6791   */\n      0x00\n        /* \"#utility.yul\":6809:6814   */\n      dup2\n        /* \"#utility.yul\":6802:6814   */\n      swap1\n      pop\n        /* \"#utility.yul\":6760:6820   */\n      swap2\n      swap1\n      pop\n      jump\t// out\n        /* \"#utility.yul\":6826:6968   */\n    tag_76:\n        /* \"#utility.yul\":6876:6885   */\n      0x00\n        /* \"#utility.yul\":6909:6962   */\n      tag_165\n        /* \"#utility.yul\":6927:6961   */\n      tag_166\n        /* \"#utility.yul\":6936:6960   */\n      tag_167\n        /* \"#utility.yul\":6954:6959   */\n      dup5\n        /* \"#utility.yul\":6936:6960   */\n      tag_62\n      jump\t// in\n    tag_167:\n        /* \"#utility.yul\":6927:6961   */\n      tag_75\n      jump\t// in\n    tag_166:\n        /* \"#utility.yul\":6909:6962   */\n      tag_62\n      jump\t// in\n    tag_165:\n        /* \"#utility.yul\":6896:6962   */\n      swap1\n      pop\n        /* \"#utility.yul\":6826:6968   */\n      swap2\n      swap1\n      pop\n      jump\t// out\n        /* \"#utility.yul\":6974:7049   */\n    tag_77:\n        /* \"#utility.yul\":7017:7020   */\n      0x00\n        /* \"#utility.yul\":7038:7043   */\n      dup2\n        /* \"#utility.yul\":7031:7043   */\n      swap1\n      pop\n        /* \"#utility.yul\":6974:7049   */\n      swap2\n      swap1\n      pop\n      jump\t// out\n        /* \"#utility.yul\":7055:7324   */\n    tag_78:\n        /* \"#utility.yul\":7165:7204   */\n      tag_170\n        /* \"#utility.yul\":7196:7203   */\n      dup4\n        /* \"#utility.yul\":7165:7204   */\n      tag_76\n      jump\t// in\n    tag_170:\n        /* \"#utility.yul\":7226:7317   */\n      tag_171\n        /* \"#utility.yul\":7275:7316   */\n      tag_172\n        /* \"#utility.yul\":7299:7315   */\n      dup3\n        /* \"#utility.yul\":7275:7316   */\n      tag_77\n      jump\t// in\n    tag_172:\n        /* \"#utility.yul\":7267:7273   */\n      dup5\n        /* \"#utility.yul\":7260:7264   */\n      dup5\n        /* \"#utility.yul\":7254:7265   */\n      sload\n        /* \"#utility.yul\":7226:7317   */\n      tag_74\n      jump\t// in\n    tag_171:\n        /* \"#utility.yul\":7220:7224   */\n      dup3\n        /* \"#utility.yul\":7213:7318   */\n      sstore\n        /* \"#utility.yul\":7131:7324   */\n      pop\n        /* \"#utility.yul\":7055:7324   */\n      pop\n      pop\n      pop\n      jump\t// out\n        /* \"#utility.yul\":7330:7403   */\n    tag_79:\n        /* \"#utility.yul\":7375:7378   */\n      0x00\n        /* \"#utility.yul\":7330:7403   */\n      swap1\n      jump\t// out\n        /* \"#utility.yul\":7409:7598   */\n    tag_80:\n        /* \"#utility.yul\":7486:7518   */\n      tag_175\n      tag_79\n      jump\t// in\n    tag_175:\n        /* \"#utility.yul\":7527:7592   */\n      tag_176\n        /* \"#utility.yul\":7585:7591   */\n      dup2\n        /* \"#utility.yul\":7577:7583   */\n      dup5\n        /* \"#utility.yul\":7571:7575   */\n      dup5\n        /* \"#utility.yul\":7527:7592   */\n      tag_78\n      jump\t// in\n    tag_176:\n        /* \"#utility.yul\":7462:7598   */\n      pop\n        /* \"#utility.yul\":7409:7598   */\n      pop\n      pop\n      jump\t// out\n        /* \"#utility.yul\":7604:7790   */\n    tag_81:\n        /* \"#utility.yul\":7664:7784   */\n    tag_178:\n        /* \"#utility.yul\":7681:7684   */\n      dup2\n        /* \"#utility.yul\":7674:7679   */\n      dup2\n        /* \"#utility.yul\":7671:7685   */\n      lt\n        /* \"#utility.yul\":7664:7784   */\n      iszero\n      tag_180\n      jumpi\n        /* \"#utility.yul\":7735:7774   */\n      tag_181\n        /* \"#utility.yul\":7772:7773   */\n      0x00\n        /* \"#utility.yul\":7765:7770   */\n      dup3\n        /* \"#utility.yul\":7735:7774   */\n      tag_80\n      jump\t// in\n    tag_181:\n        /* \"#utility.yul\":7708:7709   */\n      0x01\n        /* \"#utility.yul\":7701:7706   */\n      dup2\n        /* \"#utility.yul\":7697:7710   */\n      add\n        /* \"#utility.yul\":7688:7710   */\n      swap1\n      pop\n        /* \"#utility.yul\":7664:7784   */\n      jump(tag_178)\n    tag_180:\n        /* \"#utility.yul\":7604:7790   */\n      pop\n      pop\n      jump\t// out\n        /* \"#utility.yul\":7796:8339   */\n    tag_82:\n        /* \"#utility.yul\":7897:7899   */\n      0x1f\n        /* \"#utility.yul\":7892:7895   */\n      dup3\n        /* \"#utility.yul\":7889:7900   */\n      gt\n        /* \"#utility.yul\":7886:8332   */\n      iszero\n      tag_183\n      jumpi\n        /* \"#utility.yul\":7931:7969   */\n      tag_184\n        /* \"#utility.yul\":7963:7968   */\n      dup2\n        /* \"#utility.yul\":7931:7969   */\n      tag_71\n      jump\t// in\n    tag_184:\n        /* \"#utility.yul\":8015:8044   */\n      tag_185\n        /* \"#utility.yul\":8033:8043   */\n      dup5\n        /* \"#utility.yul\":8015:8044   */\n      tag_72\n      jump\t// in\n    tag_185:\n        /* \"#utility.yul\":8005:8013   */\n      dup2\n        /* \"#utility.yul\":8001:8045   */\n      add\n        /* \"#utility.yul\":8198:8200   */\n      0x20\n        /* \"#utility.yul\":8186:8196   */\n      dup6\n        /* \"#utility.yul\":8183:8201   */\n      lt\n        /* \"#utility.yul\":8180:8229   */\n      iszero\n      tag_186\n      jumpi\n        /* \"#utility.yul\":8219:8227   */\n      dup2\n        /* \"#utility.yul\":8204:8227   */\n      swap1\n      pop\n        /* \"#utility.yul\":8180:8229   */\n    tag_186:\n        /* \"#utility.yul\":8242:8322   */\n      tag_187\n        /* \"#utility.yul\":8298:8320   */\n      tag_188\n        /* \"#utility.yul\":8316:8319   */\n      dup6\n        /* \"#utility.yul\":8298:8320   */\n      tag_72\n      jump\t// in\n    tag_188:\n        /* \"#utility.yul\":8288:8296   */\n      dup4\n        /* \"#utility.yul\":8284:8321   */\n      add\n        /* \"#utility.yul\":8271:8282   */\n      dup3\n        /* \"#utility.yul\":8242:8322   */\n      tag_81\n      jump\t// in\n    tag_187:\n        /* \"#utility.yul\":7901:8332   */\n      pop\n      pop\n        /* \"#utility.yul\":7886:8332   */\n    tag_183:\n        /* \"#utility.yul\":7796:8339   */\n      pop\n      pop\n      pop\n      jump\t// out\n        /* \"#utility.yul\":8345:8462   */\n    tag_83:\n        /* \"#utility.yul\":8399:8407   */\n      0x00\n        /* \"#utility.yul\":8449:8454   */\n      dup3\n        /* \"#utility.yul\":8443:8447   */\n      dup3\n        /* \"#utility.yul\":8439:8455   */\n      shr\n        /* \"#utility.yul\":8418:8455   */\n      swap1\n      pop\n        /* \"#utility.yul\":8345:8462   */\n      swap3\n      swap2\n      pop\n      pop\n      jump\t// out\n        /* \"#utility.yul\":8468:8637   */\n    tag_84:\n        /* \"#utility.yul\":8512:8518   */\n      0x00\n        /* \"#utility.yul\":8545:8596   */\n      tag_191\n        /* \"#utility.yul\":8593:8594   */\n      0x00\n        /* \"#utility.yul\":8589:8595   */\n      not\n        /* \"#utility.yul\":8581:8586   */\n      dup5\n        /* \"#utility.yul\":8578:8579   */\n      0x08\n        /* \"#utility.yul\":8574:8587   */\n      mul\n        /* \"#utility.yul\":8545:8596   */\n      tag_83\n      jump\t// in\n    tag_191:\n        /* \"#utility.yul\":8541:8597   */\n      not\n        /* \"#utility.yul\":8626:8630   */\n      dup1\n        /* \"#utility.yul\":8620:8624   */\n      dup4\n        /* \"#utility.yul\":8616:8631   */\n      and\n        /* \"#utility.yul\":8606:8631   */\n      swap2\n      pop\n        /* \"#utility.yul\":8519:8637   */\n      pop\n        /* \"#utility.yul\":8468:8637   */\n      swap3\n      swap2\n      pop\n      pop\n      jump\t// out\n        /* \"#utility.yul\":8642:8937   */\n    tag_85:\n        /* \"#utility.yul\":8718:8722   */\n      0x00\n        /* \"#utility.yul\":8864:8893   */\n      tag_193\n        /* \"#utility.yul\":8889:8892   */\n      dup4\n        /* \"#utility.yul\":8883:8887   */\n      dup4\n        /* \"#utility.yul\":8864:8893   */\n      tag_84\n      jump\t// in\n    tag_193:\n        /* \"#utility.yul\":8856:8893   */\n      swap2\n      pop\n        /* \"#utility.yul\":8926:8929   */\n      dup3\n        /* \"#utility.yul\":8923:8924   */\n      0x02\n        /* \"#utility.yul\":8919:8930   */\n      mul\n        /* \"#utility.yul\":8913:8917   */\n      dup3\n        /* \"#utility.yul\":8910:8931   */\n      or\n        /* \"#utility.yul\":8902:8931   */\n      swap1\n      pop\n        /* \"#utility.yul\":8642:8937   */\n      swap3\n      swap2\n      pop\n      pop\n      jump\t// out\n        /* \"#utility.yul\":8942:10337   */\n    tag_33:\n        /* \"#utility.yul\":9059:9096   */\n      tag_195\n        /* \"#utility.yul\":9092:9095   */\n      dup3\n        /* \"#utility.yul\":9059:9096   */\n      tag_66\n      jump\t// in\n    tag_195:\n        /* \"#utility.yul\":9161:9179   */\n      0xffffffffffffffff\n        /* \"#utility.yul\":9153:9159   */\n      dup2\n        /* \"#utility.yul\":9150:9180   */\n      gt\n        /* \"#utility.yul\":9147:9203   */\n      iszero\n      tag_196\n      jumpi\n        /* \"#utility.yul\":9183:9201   */\n      tag_197\n      tag_55\n      jump\t// in\n    tag_197:\n        /* \"#utility.yul\":9147:9203   */\n    tag_196:\n        /* \"#utility.yul\":9227:9265   */\n      tag_198\n        /* \"#utility.yul\":9259:9263   */\n      dup3\n        /* \"#utility.yul\":9253:9264   */\n      sload\n        /* \"#utility.yul\":9227:9265   */\n      tag_41\n      jump\t// in\n    tag_198:\n        /* \"#utility.yul\":9312:9379   */\n      tag_199\n        /* \"#utility.yul\":9372:9378   */\n      dup3\n        /* \"#utility.yul\":9364:9370   */\n      dup3\n        /* \"#utility.yul\":9358:9362   */\n      dup6\n        /* \"#utility.yul\":9312:9379   */\n      tag_82\n      jump\t// in\n    tag_199:\n        /* \"#utility.yul\":9406:9407   */\n      0x00\n        /* \"#utility.yul\":9430:9434   */\n      0x20\n        /* \"#utility.yul\":9417:9434   */\n      swap1\n      pop\n        /* \"#utility.yul\":9462:9464   */\n      0x1f\n        /* \"#utility.yul\":9454:9460   */\n      dup4\n        /* \"#utility.yul\":9451:9465   */\n      gt\n        /* \"#utility.yul\":9479:9480   */\n      0x01\n        /* \"#utility.yul\":9474:10092   */\n      dup2\n      eq\n      tag_201\n      jumpi\n        /* \"#utility.yul\":10136:10137   */\n      0x00\n        /* \"#utility.yul\":10153:10159   */\n      dup5\n        /* \"#utility.yul\":10150:10227   */\n      iszero\n      tag_202\n      jumpi\n        /* \"#utility.yul\":10202:10211   */\n      dup3\n        /* \"#utility.yul\":10197:10200   */\n      dup8\n        /* \"#utility.yul\":10193:10212   */\n      add\n        /* \"#utility.yul\":10187:10213   */\n      mload\n        /* \"#utility.yul\":10178:10213   */\n      swap1\n      pop\n        /* \"#utility.yul\":10150:10227   */\n    tag_202:\n        /* \"#utility.yul\":10253:10320   */\n      tag_203\n        /* \"#utility.yul\":10313:10319   */\n      dup6\n        /* \"#utility.yul\":10306:10311   */\n      dup3\n        /* \"#utility.yul\":10253:10320   */\n      tag_85\n      jump\t// in\n    tag_203:\n        /* \"#utility.yul\":10247:10251   */\n      dup7\n        /* \"#utility.yul\":10240:10321   */\n      sstore\n        /* \"#utility.yul\":10109:10331   */\n      pop\n        /* \"#utility.yul\":9444:10331   */\n      jump(tag_200)\n        /* \"#utility.yul\":9474:10092   */\n    tag_201:\n        /* \"#utility.yul\":9526:9530   */\n      0x1f\n        /* \"#utility.yul\":9522:9531   */\n      not\n        /* \"#utility.yul\":9514:9520   */\n      dup5\n        /* \"#utility.yul\":9510:9532   */\n      and\n        /* \"#utility.yul\":9560:9597   */\n      tag_204\n        /* \"#utility.yul\":9592:9596   */\n      dup7\n        /* \"#utility.yul\":9560:9597   */\n      tag_71\n      jump\t// in\n    tag_204:\n        /* \"#utility.yul\":9619:9620   */\n      0x00\n        /* \"#utility.yul\":9633:9841   */\n    tag_205:\n        /* \"#utility.yul\":9647:9654   */\n      dup3\n        /* \"#utility.yul\":9644:9645   */\n      dup2\n        /* \"#utility.yul\":9641:9655   */\n      lt\n        /* \"#utility.yul\":9633:9841   */\n      iszero\n      tag_207\n      jumpi\n        /* \"#utility.yul\":9726:9735   */\n      dup5\n        /* \"#utility.yul\":9721:9724   */\n      dup10\n        /* \"#utility.yul\":9717:9736   */\n      add\n        /* \"#utility.yul\":9711:9737   */\n      mload\n        /* \"#utility.yul\":9703:9709   */\n      dup3\n        /* \"#utility.yul\":9696:9738   */\n      sstore\n        /* \"#utility.yul\":9777:9778   */\n      0x01\n        /* \"#utility.yul\":9769:9775   */\n      dup3\n        /* \"#utility.yul\":9765:9779   */\n      add\n        /* \"#utility.yul\":9755:9779   */\n      swap2\n      pop\n        /* \"#utility.yul\":9824:9826   */\n      0x20\n        /* \"#utility.yul\":9813:9822   */\n      dup6\n        /* \"#utility.yul\":9809:9827   */\n      add\n        /* \"#utility.yul\":9796:9827   */\n      swap5\n      pop\n        /* \"#utility.yul\":9670:9674   */\n      0x20\n        /* \"#utility.yul\":9667:9668   */\n      dup2\n        /* \"#utility.yul\":9663:9675   */\n      add\n        /* \"#utility.yul\":9658:9675   */\n      swap1\n      pop\n        /* \"#utility.yul\":9633:9841   */\n      jump(tag_205)\n    tag_207:\n        /* \"#utility.yul\":9869:9875   */\n      dup7\n        /* \"#utility.yul\":9860:9867   */\n      dup4\n        /* \"#utility.yul\":9857:9876   */\n      lt\n        /* \"#utility.yul\":9854:10033   */\n      iszero\n      tag_208\n      jumpi\n        /* \"#utility.yul\":9927:9936   */\n      dup5\n        /* \"#utility.yul\":9922:9925   */\n      dup10\n        /* \"#utility.yul\":9918:9937   */\n      add\n        /* \"#utility.yul\":9912:9938   */\n      mload\n        /* \"#utility.yul\":9970:10018   */\n      tag_209\n        /* \"#utility.yul\":10012:10016   */\n      0x1f\n        /* \"#utility.yul\":10004:10010   */\n      dup10\n        /* \"#utility.yul\":10000:10017   */\n      and\n        /* \"#utility.yul\":9989:9998   */\n      dup3\n        /* \"#utility.yul\":9970:10018   */\n      tag_84\n      jump\t// in\n    tag_209:\n        /* \"#utility.yul\":9962:9968   */\n      dup4\n        /* \"#utility.yul\":9955:10019   */\n      sstore\n        /* \"#utility.yul\":9877:10033   */\n      pop\n        /* \"#utility.yul\":9854:10033   */\n    tag_208:\n        /* \"#utility.yul\":10079:10080   */\n      0x01\n        /* \"#utility.yul\":10075:10076   */\n      0x02\n        /* \"#utility.yul\":10067:10073   */\n      dup9\n        /* \"#utility.yul\":10063:10077   */\n      mul\n        /* \"#utility.yul\":10059:10081   */\n      add\n        /* \"#utility.yul\":10053:10057   */\n      dup9\n        /* \"#utility.yul\":10046:10082   */\n      sstore\n        /* \"#utility.yul\":9481:10092   */\n      pop\n      pop\n      pop\n        /* \"#utility.yul\":9444:10331   */\n    tag_200:\n      pop\n        /* \"#utility.yul\":9034:10337   */\n      pop\n      pop\n      pop\n        /* \"#utility.yul\":8942:10337   */\n      pop\n      pop\n      jump\t// out\n        /* \"#utility.yul\":10343:10523   */\n    tag_86:\n        /* \"#utility.yul\":10391:10468   */\n      0x4e487b7100000000000000000000000000000000000000000000000000000000\n        /* \"#utility.yul\":10388:10389   */\n      0x00\n        /* \"#utility.yul\":10381:10469   */\n      mstore\n        /* \"#utility.yul\":10488:10492   */\n      0x11\n        /* \"#utility.yul\":10485:10486   */\n      0x04\n        /* \"#utility.yul\":10478:10493   */\n      mstore\n        /* \"#utility.yul\":10512:10516   */\n      0x24\n        /* \"#utility.yul\":10509:10510   */\n      0x00\n        /* \"#utility.yul\":10502:10517   */\n      revert\n        /* \"#utility.yul\":10529:10720   */\n    tag_36:\n        /* \"#utility.yul\":10569:10572   */\n      0x00\n        /* \"#utility.yul\":10588:10608   */\n      tag_212\n        /* \"#utility.yul\":10606:10607   */\n      dup3\n        /* \"#utility.yul\":10588:10608   */\n      tag_62\n      jump\t// in\n    tag_212:\n        /* \"#utility.yul\":10583:10608   */\n      swap2\n      pop\n        /* \"#utility.yul\":10622:10642   */\n      tag_213\n        /* \"#utility.yul\":10640:10641   */\n      dup4\n        /* \"#utility.yul\":10622:10642   */\n      tag_62\n      jump\t// in\n    tag_213:\n        /* \"#utility.yul\":10617:10642   */\n      swap3\n      pop\n        /* \"#utility.yul\":10665:10666   */\n      dup3\n        /* \"#utility.yul\":10662:10663   */\n      dup3\n        /* \"#utility.yul\":10658:10667   */\n      add\n        /* \"#utility.yul\":10651:10667   */\n      swap1\n      pop\n        /* \"#utility.yul\":10686:10689   */\n      dup1\n        /* \"#utility.yul\":10683:10684   */\n      dup3\n        /* \"#utility.yul\":10680:10690   */\n      gt\n        /* \"#utility.yul\":10677:10713   */\n      iszero\n      tag_214\n      jumpi\n        /* \"#utility.yul\":10693:10711   */\n      tag_215\n      tag_86\n      jump\t// in\n    tag_215:\n        /* \"#utility.yul\":10677:10713   */\n    tag_214:\n        /* \"#utility.yul\":10529:10720   */\n      swap3\n      swap2\n      pop\n      pop\n      jump\t// out\n        /* \"#utility.yul\":10726:10906   */\n    tag_87:\n        /* \"#utility.yul\":10774:10851   */\n      0x4e487b7100000000000000000000000000000000000000000000000000000000\n        /* \"#utility.yul\":10771:10772   */\n      0x00\n        /* \"#utility.yul\":10764:10852   */\n      mstore\n        /* \"#utility.yul\":10871:10875   */\n      0x12\n        /* \"#utility.yul\":10868:10869   */\n      0x04\n        /* \"#utility.yul\":10861:10876   */\n      mstore\n        /* \"#utility.yul\":10895:10899   */\n      0x24\n        /* \"#utility.yul\":10892:10893   */\n      0x00\n        /* \"#utility.yul\":10885:10900   */\n      revert\n        /* \"#utility.yul\":10912:11097   */\n    tag_48:\n        /* \"#utility.yul\":10952:10953   */\n      0x00\n        /* \"#utility.yul\":10969:10989   */\n      tag_218\n        /* \"#utility.yul\":10987:10988   */\n      dup3\n        /* \"#utility.yul\":10969:10989   */\n      tag_62\n      jump\t// in\n    tag_218:\n        /* \"#utility.yul\":10964:10989   */\n      swap2\n      pop\n        /* \"#utility.yul\":11003:11023   */\n      tag_219\n        /* \"#utility.yul\":11021:11022   */\n      dup4\n        /* \"#utility.yul\":11003:11023   */\n      tag_62\n      jump\t// in\n    tag_219:\n        /* \"#utility.yul\":10998:11023   */\n      swap3\n      pop\n        /* \"#utility.yul\":11042:11043   */\n      dup3\n        /* \"#utility.yul\":11032:11067   */\n      tag_220\n      jumpi\n        /* \"#utility.yul\":11047:11065   */\n      tag_221\n      tag_87\n      jump\t// in\n    tag_221:\n        /* \"#utility.yul\":11032:11067   */\n    tag_220:\n        /* \"#utility.yul\":11089:11090   */\n      dup3\n        /* \"#utility.yul\":11086:11087   */\n      dup3\n        /* \"#utility.yul\":11082:11091   */\n      div\n        /* \"#utility.yul\":11077:11091   */\n      swap1\n      pop\n        /* \"#utility.yul\":10912:11097   */\n      swap3\n      swap2\n      pop\n      pop\n      jump\t// out\n\n    auxdata: 0xa2646970667358221220bec438fef5518d74865a3d467760c8078f67324d0d8145fb213eee84ce82ded564736f6c63430008180033\n}\n",
				"bytecode": {
					"linkReferences": {},
					"object": "608060405234801561000f575f80fd5b506108748061001d5f395ff3fe608060405234801561000f575f80fd5b5060043610610060575f3560e01c8063063cfccb146100645780631fe386731461008057806337e8c8a01461009c5780634a17cbab146100ba5780638c160186146100d85780638fce12ed146100f6575b5f80fd5b61007e6004803603810190610079919061033e565b610112565b005b61009a600480360381019061009591906103b8565b610124565b005b6100a461013a565b6040516100b19190610405565b60405180910390f35b6100c2610143565b6040516100cf9190610405565b60405180910390f35b6100e061014c565b6040516100ed9190610498565b60405180910390f35b610110600480360381019061010b91906103b8565b6101db565b005b805f908161012091906106b2565b5050565b808261013091906107ae565b6001819055505050565b5f600154905090565b5f600254905090565b60605f805461015a906104e5565b80601f0160208091040260200160405190810160405280929190818152602001828054610186906104e5565b80156101d15780601f106101a8576101008083540402835291602001916101d1565b820191905f5260205f20905b8154815290600101906020018083116101b457829003601f168201915b5050505050905090565b80826101e7919061080e565b6002819055505050565b5f604051905090565b5f80fd5b5f80fd5b5f80fd5b5f80fd5b5f601f19601f8301169050919050565b7f4e487b71000000000000000000000000000000000000000000000000000000005f52604160045260245ffd5b6102508261020a565b810181811067ffffffffffffffff8211171561026f5761026e61021a565b5b80604052505050565b5f6102816101f1565b905061028d8282610247565b919050565b5f67ffffffffffffffff8211156102ac576102ab61021a565b5b6102b58261020a565b9050602081019050919050565b828183375f83830152505050565b5f6102e26102dd84610292565b610278565b9050828152602081018484840111156102fe576102fd610206565b5b6103098482856102c2565b509392505050565b5f82601f83011261032557610324610202565b5b81356103358482602086016102d0565b91505092915050565b5f60208284031215610353576103526101fa565b5b5f82013567ffffffffffffffff8111156103705761036f6101fe565b5b61037c84828501610311565b91505092915050565b5f819050919050565b61039781610385565b81146103a1575f80fd5b50565b5f813590506103b28161038e565b92915050565b5f80604083850312156103ce576103cd6101fa565b5b5f6103db858286016103a4565b92505060206103ec858286016103a4565b9150509250929050565b6103ff81610385565b82525050565b5f6020820190506104185f8301846103f6565b92915050565b5f81519050919050565b5f82825260208201905092915050565b5f5b8381101561045557808201518184015260208101905061043a565b5f8484015250505050565b5f61046a8261041e565b6104748185610428565b9350610484818560208601610438565b61048d8161020a565b840191505092915050565b5f6020820190508181035f8301526104b08184610460565b905092915050565b7f4e487b71000000000000000000000000000000000000000000000000000000005f52602260045260245ffd5b5f60028204905060018216806104fc57607f821691505b60208210810361050f5761050e6104b8565b5b50919050565b5f819050815f5260205f209050919050565b5f6020601f8301049050919050565b5f82821b905092915050565b5f600883026105717fffffffffffffffffffffffffffffffffffffffffffffffffffffffffffffffff82610536565b61057b8683610536565b95508019841693508086168417925050509392505050565b5f819050919050565b5f6105b66105b16105ac84610385565b610593565b610385565b9050919050565b5f819050919050565b6105cf8361059c565b6105e36105db826105bd565b848454610542565b825550505050565b5f90565b6105f76105eb565b6106028184846105c6565b505050565b5b818110156106255761061a5f826105ef565b600181019050610608565b5050565b601f82111561066a5761063b81610515565b61064484610527565b81016020851015610653578190505b61066761065f85610527565b830182610607565b50505b505050565b5f82821c905092915050565b5f61068a5f198460080261066f565b1980831691505092915050565b5f6106a2838361067b565b9150826002028217905092915050565b6106bb8261041e565b67ffffffffffffffff8111156106d4576106d361021a565b5b6106de82546104e5565b6106e9828285610629565b5f60209050601f83116001811461071a575f8415610708578287015190505b6107128582610697565b865550610779565b601f19841661072886610515565b5f5b8281101561074f5784890151825560018201915060208501945060208101905061072a565b8683101561076c5784890151610768601f89168261067b565b8355505b6001600288020188555050505b505050505050565b7f4e487b71000000000000000000000000000000000000000000000000000000005f52601160045260245ffd5b5f6107b882610385565b91506107c383610385565b92508282019050808211156107db576107da610781565b5b92915050565b7f4e487b71000000000000000000000000000000000000000000000000000000005f52601260045260245ffd5b5f61081882610385565b915061082383610385565b925082610833576108326107e1565b5b82820490509291505056fea2646970667358221220bec438fef5518d74865a3d467760c8078f67324d0d8145fb213eee84ce82ded564736f6c63430008180033",
					"opcodes": "PUSH1 0x80 PUSH1 0x40 MSTORE CALLVALUE DUP1 ISZERO PUSH2 0xF JUMPI PUSH0 DUP1 REVERT JUMPDEST POP PUSH2 0x874 DUP1 PUSH2 0x1D PUSH0 CODECOPY PUSH0 RETURN INVALID PUSH1 0x80 PUSH1 0x40 MSTORE CALLVALUE DUP1 ISZERO PUSH2 0xF JUMPI PUSH0 DUP1 REVERT JUMPDEST POP PUSH1 0x4 CALLDATASIZE LT PUSH2 0x60 JUMPI PUSH0 CALLDATALOAD PUSH1 0xE0 SHR DUP1 PUSH4 0x63CFCCB EQ PUSH2 0x64 JUMPI DUP1 PUSH4 0x1FE38673 EQ PUSH2 0x80 JUMPI DUP1 PUSH4 0x37E8C8A0 EQ PUSH2 0x9C JUMPI DUP1 PUSH4 0x4A17CBAB EQ PUSH2 0xBA JUMPI DUP1 PUSH4 0x8C160186 EQ PUSH2 0xD8 JUMPI DUP1 PUSH4 0x8FCE12ED EQ PUSH2 0xF6 JUMPI JUMPDEST PUSH0 DUP1 REVERT JUMPDEST PUSH2 0x7E PUSH1 0x4 DUP1 CALLDATASIZE SUB DUP2 ADD SWAP1 PUSH2 0x79 SWAP2 SWAP1 PUSH2 0x33E JUMP JUMPDEST PUSH2 0x112 JUMP JUMPDEST STOP JUMPDEST PUSH2 0x9A PUSH1 0x4 DUP1 CALLDATASIZE SUB DUP2 ADD SWAP1 PUSH2 0x95 SWAP2 SWAP1 PUSH2 0x3B8 JUMP JUMPDEST PUSH2 0x124 JUMP JUMPDEST STOP JUMPDEST PUSH2 0xA4 PUSH2 0x13A JUMP JUMPDEST PUSH1 0x40 MLOAD PUSH2 0xB1 SWAP2 SWAP1 PUSH2 0x405 JUMP JUMPDEST PUSH1 0x40 MLOAD DUP1 SWAP2 SUB SWAP1 RETURN JUMPDEST PUSH2 0xC2 PUSH2 0x143 JUMP JUMPDEST PUSH1 0x40 MLOAD PUSH2 0xCF SWAP2 SWAP1 PUSH2 0x405 JUMP JUMPDEST PUSH1 0x40 MLOAD DUP1 SWAP2 SUB SWAP1 RETURN JUMPDEST PUSH2 0xE0 PUSH2 0x14C JUMP JUMPDEST PUSH1 0x40 MLOAD PUSH2 0xED SWAP2 SWAP1 PUSH2 0x498 JUMP JUMPDEST PUSH1 0x40 MLOAD DUP1 SWAP2 SUB SWAP1 RETURN JUMPDEST PUSH2 0x110 PUSH1 0x4 DUP1 CALLDATASIZE SUB DUP2 ADD SWAP1 PUSH2 0x10B SWAP2 SWAP1 PUSH2 0x3B8 JUMP JUMPDEST PUSH2 0x1DB JUMP JUMPDEST STOP JUMPDEST DUP1 PUSH0 SWAP1 DUP2 PUSH2 0x120 SWAP2 SWAP1 PUSH2 0x6B2 JUMP JUMPDEST POP POP JUMP JUMPDEST DUP1 DUP3 PUSH2 0x130 SWAP2 SWAP1 PUSH2 0x7AE JUMP JUMPDEST PUSH1 0x1 DUP2 SWAP1 SSTORE POP POP POP JUMP JUMPDEST PUSH0 PUSH1 0x1 SLOAD SWAP1 POP SWAP1 JUMP JUMPDEST PUSH0 PUSH1 0x2 SLOAD SWAP1 POP SWAP1 JUMP JUMPDEST PUSH1 0x60 PUSH0 DUP1 SLOAD PUSH2 0x15A SWAP1 PUSH2 0x4E5 JUMP JUMPDEST DUP1 PUSH1 0x1F ADD PUSH1 0x20 DUP1 SWAP2 DIV MUL PUSH1 0x20 ADD PUSH1 0x40 MLOAD SWAP1 DUP2 ADD PUSH1 0x40 MSTORE DUP1 SWAP3 SWAP2 SWAP1 DUP2 DUP2 MSTORE PUSH1 0x20 ADD DUP3 DUP1 SLOAD PUSH2 0x186 SWAP1 PUSH2 0x4E5 JUMP JUMPDEST DUP1 ISZERO PUSH2 0x1D1 JUMPI DUP1 PUSH1 0x1F LT PUSH2 0x1A8 JUMPI PUSH2 0x100 DUP1 DUP4 SLOAD DIV MUL DUP4 MSTORE SWAP2 PUSH1 0x20 ADD SWAP2 PUSH2 0x1D1 JUMP JUMPDEST DUP3 ADD SWAP2 SWAP1 PUSH0 MSTORE PUSH1 0x20 PUSH0 KECCAK256 SWAP1 JUMPDEST DUP2 SLOAD DUP2 MSTORE SWAP1 PUSH1 0x1 ADD SWAP1 PUSH1 0x20 ADD DUP1 DUP4 GT PUSH2 0x1B4 JUMPI DUP3 SWAP1 SUB PUSH1 0x1F AND DUP3 ADD SWAP2 JUMPDEST POP POP POP POP POP SWAP1 POP SWAP1 JUMP JUMPDEST DUP1 DUP3 PUSH2 0x1E7 SWAP2 SWAP1 PUSH2 0x80E JUMP JUMPDEST PUSH1 0x2 DUP2 SWAP1 SSTORE POP POP POP JUMP JUMPDEST PUSH0 PUSH1 0x40 MLOAD SWAP1 POP SWAP1 JUMP JUMPDEST PUSH0 DUP1 REVERT JUMPDEST PUSH0 DUP1 REVERT JUMPDEST PUSH0 DUP1 REVERT JUMPDEST PUSH0 DUP1 REVERT JUMPDEST PUSH0 PUSH1 0x1F NOT PUSH1 0x1F DUP4 ADD AND SWAP1 POP SWAP2 SWAP1 POP JUMP JUMPDEST PUSH32 0x4E487B7100000000000000000000000000000000000000000000000000000000 PUSH0 MSTORE PUSH1 0x41 PUSH1 0x4 MSTORE PUSH1 0x24 PUSH0 REVERT JUMPDEST PUSH2 0x250 DUP3 PUSH2 0x20A JUMP JUMPDEST DUP2 ADD DUP2 DUP2 LT PUSH8 0xFFFFFFFFFFFFFFFF DUP3 GT OR ISZERO PUSH2 0x26F JUMPI PUSH2 0x26E PUSH2 0x21A JUMP JUMPDEST JUMPDEST DUP1 PUSH1 0x40 MSTORE POP POP POP JUMP JUMPDEST PUSH0 PUSH2 0x281 PUSH2 0x1F1 JUMP JUMPDEST SWAP1 POP PUSH2 0x28D DUP3 DUP3 PUSH2 0x247 JUMP JUMPDEST SWAP2 SWAP1 POP JUMP JUMPDEST PUSH0 PUSH8 0xFFFFFFFFFFFFFFFF DUP3 GT ISZERO PUSH2 0x2AC JUMPI PUSH2 0x2AB PUSH2 0x21A JUMP JUMPDEST JUMPDEST PUSH2 0x2B5 DUP3 PUSH2 0x20A JUMP JUMPDEST SWAP1 POP PUSH1 0x20 DUP2 ADD SWAP1 POP SWAP2 SWAP1 POP JUMP JUMPDEST DUP3 DUP2 DUP4 CALLDATACOPY PUSH0 DUP4 DUP4 ADD MSTORE POP POP POP JUMP JUMPDEST PUSH0 PUSH2 0x2E2 PUSH2 0x2DD DUP5 PUSH2 0x292 JUMP JUMPDEST PUSH2 0x278 JUMP JUMPDEST SWAP1 POP DUP3 DUP2 MSTORE PUSH1 0x20 DUP2 ADD DUP5 DUP5 DUP5 ADD GT ISZERO PUSH2 0x2FE JUMPI PUSH2 0x2FD PUSH2 0x206 JUMP JUMPDEST JUMPDEST PUSH2 0x309 DUP5 DUP3 DUP6 PUSH2 0x2C2 JUMP JUMPDEST POP SWAP4 SWAP3 POP POP POP JUMP JUMPDEST PUSH0 DUP3 PUSH1 0x1F DUP4 ADD SLT PUSH2 0x325 JUMPI PUSH2 0x324 PUSH2 0x202 JUMP JUMPDEST JUMPDEST DUP2 CALLDATALOAD PUSH2 0x335 DUP5 DUP3 PUSH1 0x20 DUP7 ADD PUSH2 0x2D0 JUMP JUMPDEST SWAP2 POP POP SWAP3 SWAP2 POP POP JUMP JUMPDEST PUSH0 PUSH1 0x20 DUP3 DUP5 SUB SLT ISZERO PUSH2 0x353 JUMPI PUSH2 0x352 PUSH2 0x1FA JUMP JUMPDEST JUMPDEST PUSH0 DUP3 ADD CALLDATALOAD PUSH8 0xFFFFFFFFFFFFFFFF DUP2 GT ISZERO PUSH2 0x370 JUMPI PUSH2 0x36F PUSH2 0x1FE JUMP JUMPDEST JUMPDEST PUSH2 0x37C DUP5 DUP3 DUP6 ADD PUSH2 0x311 JUMP JUMPDEST SWAP2 POP POP SWAP3 SWAP2 POP POP JUMP JUMPDEST PUSH0 DUP2 SWAP1 POP SWAP2 SWAP1 POP JUMP JUMPDEST PUSH2 0x397 DUP2 PUSH2 0x385 JUMP JUMPDEST DUP2 EQ PUSH2 0x3A1 JUMPI PUSH0 DUP1 REVERT JUMPDEST POP JUMP JUMPDEST PUSH0 DUP2 CALLDATALOAD SWAP1 POP PUSH2 0x3B2 DUP2 PUSH2 0x38E JUMP JUMPDEST SWAP3 SWAP2 POP POP JUMP JUMPDEST PUSH0 DUP1 PUSH1 0x40 DUP4 DUP6 SUB SLT ISZERO PUSH2 0x3CE JUMPI PUSH2 0x3CD PUSH2 0x1FA JUMP JUMPDEST JUMPDEST PUSH0 PUSH2 0x3DB DUP6 DUP3 DUP7 ADD PUSH2 0x3A4 JUMP JUMPDEST SWAP3 POP POP PUSH1 0x20 PUSH2 0x3EC DUP6 DUP3 DUP7 ADD PUSH2 0x3A4 JUMP JUMPDEST SWAP2 POP POP SWAP3 POP SWAP3 SWAP1 POP JUMP JUMPDEST PUSH2 0x3FF DUP2 PUSH2 0x385 JUMP JUMPDEST DUP3 MSTORE POP POP JUMP JUMPDEST PUSH0 PUSH1 0x20 DUP3 ADD SWAP1 POP PUSH2 0x418 PUSH0 DUP4 ADD DUP5 PUSH2 0x3F6 JUMP JUMPDEST SWAP3 SWAP2 POP POP JUMP JUMPDEST PUSH0 DUP2 MLOAD SWAP1 POP SWAP2 SWAP1 POP JUMP JUMPDEST PUSH0 DUP3 DUP3 MSTORE PUSH1 0x20 DUP3 ADD SWAP1 POP SWAP3 SWAP2 POP POP JUMP JUMPDEST PUSH0 JUMPDEST DUP4 DUP2 LT ISZERO PUSH2 0x455 JUMPI DUP1 DUP3 ADD MLOAD DUP2 DUP5 ADD MSTORE PUSH1 0x20 DUP2 ADD SWAP1 POP PUSH2 0x43A JUMP JUMPDEST PUSH0 DUP5 DUP5 ADD MSTORE POP POP POP POP JUMP JUMPDEST PUSH0 PUSH2 0x46A DUP3 PUSH2 0x41E JUMP JUMPDEST PUSH2 0x474 DUP2 DUP6 PUSH2 0x428 JUMP JUMPDEST SWAP4 POP PUSH2 0x484 DUP2 DUP6 PUSH1 0x20 DUP7 ADD PUSH2 0x438 JUMP JUMPDEST PUSH2 0x48D DUP2 PUSH2 0x20A JUMP JUMPDEST DUP5 ADD SWAP2 POP POP SWAP3 SWAP2 POP POP JUMP JUMPDEST PUSH0 PUSH1 0x20 DUP3 ADD SWAP1 POP DUP2 DUP2 SUB PUSH0 DUP4 ADD MSTORE PUSH2 0x4B0 DUP2 DUP5 PUSH2 0x460 JUMP JUMPDEST SWAP1 POP SWAP3 SWAP2 POP POP JUMP JUMPDEST PUSH32 0x4E487B7100000000000000000000000000000000000000000000000000000000 PUSH0 MSTORE PUSH1 0x22 PUSH1 0x4 MSTORE PUSH1 0x24 PUSH0 REVERT JUMPDEST PUSH0 PUSH1 0x2 DUP3 DIV SWAP1 POP PUSH1 0x1 DUP3 AND DUP1 PUSH2 0x4FC JUMPI PUSH1 0x7F DUP3 AND SWAP2 POP JUMPDEST PUSH1 0x20 DUP3 LT DUP2 SUB PUSH2 0x50F JUMPI PUSH2 0x50E PUSH2 0x4B8 JUMP JUMPDEST JUMPDEST POP SWAP2 SWAP1 POP JUMP JUMPDEST PUSH0 DUP2 SWAP1 POP DUP2 PUSH0 MSTORE PUSH1 0x20 PUSH0 KECCAK256 SWAP1 POP SWAP2 SWAP1 POP JUMP JUMPDEST PUSH0 PUSH1 0x20 PUSH1 0x1F DUP4 ADD DIV SWAP1 POP SWAP2 SWAP1 POP JUMP JUMPDEST PUSH0 DUP3 DUP3 SHL SWAP1 POP SWAP3 SWAP2 POP POP JUMP JUMPDEST PUSH0 PUSH1 0x8 DUP4 MUL PUSH2 0x571 PUSH32 0xFFFFFFFFFFFFFFFFFFFFFFFFFFFFFFFFFFFFFFFFFFFFFFFFFFFFFFFFFFFFFFFF DUP3 PUSH2 0x536 JUMP JUMPDEST PUSH2 0x57B DUP7 DUP4 PUSH2 0x536 JUMP JUMPDEST SWAP6 POP DUP1 NOT DUP5 AND SWAP4 POP DUP1 DUP7 AND DUP5 OR SWAP3 POP POP POP SWAP4 SWAP3 POP POP POP JUMP JUMPDEST PUSH0 DUP2 SWAP1 POP SWAP2 SWAP1 POP JUMP JUMPDEST PUSH0 PUSH2 0x5B6 PUSH2 0x5B1 PUSH2 0x5AC DUP5 PUSH2 0x385 JUMP JUMPDEST PUSH2 0x593 JUMP JUMPDEST PUSH2 0x385 JUMP JUMPDEST SWAP1 POP SWAP2 SWAP1 POP JUMP JUMPDEST PUSH0 DUP2 SWAP1 POP SWAP2 SWAP1 POP JUMP JUMPDEST PUSH2 0x5CF DUP4 PUSH2 0x59C JUMP JUMPDEST PUSH2 0x5E3 PUSH2 0x5DB DUP3 PUSH2 0x5BD JUMP JUMPDEST DUP5 DUP5 SLOAD PUSH2 0x542 JUMP JUMPDEST DUP3 SSTORE POP POP POP POP JUMP JUMPDEST PUSH0 SWAP1 JUMP JUMPDEST PUSH2 0x5F7 PUSH2 0x5EB JUMP JUMPDEST PUSH2 0x602 DUP2 DUP5 DUP5 PUSH2 0x5C6 JUMP JUMPDEST POP POP POP JUMP JUMPDEST JUMPDEST DUP2 DUP2 LT ISZERO PUSH2 0x625 JUMPI PUSH2 0x61A PUSH0 DUP3 PUSH2 0x5EF JUMP JUMPDEST PUSH1 0x1 DUP2 ADD SWAP1 POP PUSH2 0x608 JUMP JUMPDEST POP POP JUMP JUMPDEST PUSH1 0x1F DUP3 GT ISZERO PUSH2 0x66A JUMPI PUSH2 0x63B DUP2 PUSH2 0x515 JUMP JUMPDEST PUSH2 0x644 DUP5 PUSH2 0x527 JUMP JUMPDEST DUP2 ADD PUSH1 0x20 DUP6 LT ISZERO PUSH2 0x653 JUMPI DUP2 SWAP1 POP JUMPDEST PUSH2 0x667 PUSH2 0x65F DUP6 PUSH2 0x527 JUMP JUMPDEST DUP4 ADD DUP3 PUSH2 0x607 JUMP JUMPDEST POP POP JUMPDEST POP POP POP JUMP JUMPDEST PUSH0 DUP3 DUP3 SHR SWAP1 POP SWAP3 SWAP2 POP POP JUMP JUMPDEST PUSH0 PUSH2 0x68A PUSH0 NOT DUP5 PUSH1 0x8 MUL PUSH2 0x66F JUMP JUMPDEST NOT DUP1 DUP4 AND SWAP2 POP POP SWAP3 SWAP2 POP POP JUMP JUMPDEST PUSH0 PUSH2 0x6A2 DUP4 DUP4 PUSH2 0x67B JUMP JUMPDEST SWAP2 POP DUP3 PUSH1 0x2 MUL DUP3 OR SWAP1 POP SWAP3 SWAP2 POP POP JUMP JUMPDEST PUSH2 0x6BB DUP3 PUSH2 0x41E JUMP JUMPDEST PUSH8 0xFFFFFFFFFFFFFFFF DUP2 GT ISZERO PUSH2 0x6D4 JUMPI PUSH2 0x6D3 PUSH2 0x21A JUMP JUMPDEST JUMPDEST PUSH2 0x6DE DUP3 SLOAD PUSH2 0x4E5 JUMP JUMPDEST PUSH2 0x6E9 DUP3 DUP3 DUP6 PUSH2 0x629 JUMP JUMPDEST PUSH0 PUSH1 0x20 SWAP1 POP PUSH1 0x1F DUP4 GT PUSH1 0x1 DUP2 EQ PUSH2 0x71A JUMPI PUSH0 DUP5 ISZERO PUSH2 0x708 JUMPI DUP3 DUP8 ADD MLOAD SWAP1 POP JUMPDEST PUSH2 0x712 DUP6 DUP3 PUSH2 0x697 JUMP JUMPDEST DUP7 SSTORE POP PUSH2 0x779 JUMP JUMPDEST PUSH1 0x1F NOT DUP5 AND PUSH2 0x728 DUP7 PUSH2 0x515 JUMP JUMPDEST PUSH0 JUMPDEST DUP3 DUP2 LT ISZERO PUSH2 0x74F JUMPI DUP5 DUP10 ADD MLOAD DUP3 SSTORE PUSH1 0x1 DUP3 ADD SWAP2 POP PUSH1 0x20 DUP6 ADD SWAP5 POP PUSH1 0x20 DUP2 ADD SWAP1 POP PUSH2 0x72A JUMP JUMPDEST DUP7 DUP4 LT ISZERO PUSH2 0x76C JUMPI DUP5 DUP10 ADD MLOAD PUSH2 0x768 PUSH1 0x1F DUP10 AND DUP3 PUSH2 0x67B JUMP JUMPDEST DUP4 SSTORE POP JUMPDEST PUSH1 0x1 PUSH1 0x2 DUP9 MUL ADD DUP9 SSTORE POP POP POP JUMPDEST POP POP POP POP POP POP JUMP JUMPDEST PUSH32 0x4E487B7100000000000000000000000000000000000000000000000000000000 PUSH0 MSTORE PUSH1 0x11 PUSH1 0x4 MSTORE PUSH1 0x24 PUSH0 REVERT JUMPDEST PUSH0 PUSH2 0x7B8 DUP3 PUSH2 0x385 JUMP JUMPDEST SWAP2 POP PUSH2 0x7C3 DUP4 PUSH2 0x385 JUMP JUMPDEST SWAP3 POP DUP3 DUP3 ADD SWAP1 POP DUP1 DUP3 GT ISZERO PUSH2 0x7DB JUMPI PUSH2 0x7DA PUSH2 0x781 JUMP JUMPDEST JUMPDEST SWAP3 SWAP2 POP POP JUMP JUMPDEST PUSH32 0x4E487B7100000000000000000000000000000000000000000000000000000000 PUSH0 MSTORE PUSH1 0x12 PUSH1 0x4 MSTORE PUSH1 0x24 PUSH0 REVERT JUMPDEST PUSH0 PUSH2 0x818 DUP3 PUSH2 0x385 JUMP JUMPDEST SWAP2 POP PUSH2 0x823 DUP4 PUSH2 0x385 JUMP JUMPDEST SWAP3 POP DUP3 PUSH2 0x833 JUMPI PUSH2 0x832 PUSH2 0x7E1 JUMP JUMPDEST JUMPDEST DUP3 DUP3 DIV SWAP1 POP SWAP3 SWAP2 POP POP JUMP INVALID LOG2 PUSH5 0x6970667358 0x22 SLT KECCAK256 0xBE 0xC4 CODESIZE INVALID CREATE2 MLOAD DUP14 PUSH21 0x865A3D467760C8078F67324D0D8145FB213EEE84CE DUP3 0xDE 0xD5 PUSH5 0x736F6C6343 STOP ADDMOD XOR STOP CALLER "
				},
				"gasEstimates": {
					"creation": {
						"codeDepositCost": "432800",
						"executionCost": "466",
						"totalCost": "433266"
					},
					"external": {
						"divideNumbers(uint256,uint256)": "infinite",
						"getDividedNum()": "2476",
						"getFullName()": "infinite",
						"getSumOfNumbers()": "2454",
						"storeName(string)": "infinite",
						"sumNumbers(uint256,uint256)": "infinite"
					}
				},
				"methodIdentifiers": {
					"divideNumbers(uint256,uint256)": "8fce12ed",
					"getDividedNum()": "4a17cbab",
					"getFullName()": "8c160186",
					"getSumOfNumbers()": "37e8c8a0",
					"storeName(string)": "063cfccb",
					"sumNumbers(uint256,uint256)": "1fe38673"
				}
			},
			"storageLayout": {
				"storage": [
					{
						"astId": 3,
						"contract": "contracts/simpleContract.sol:SimpleContract",
						"label": "fullName",
						"offset": 0,
						"slot": "0",
						"type": "t_string_storage"
					},
					{
						"astId": 5,
						"contract": "contracts/simpleContract.sol:SimpleContract",
						"label": "sumOfTwoNumbers",
						"offset": 0,
						"slot": "1",
						"type": "t_uint256"
					},
					{
						"astId": 7,
						"contract": "contracts/simpleContract.sol:SimpleContract",
						"label": "dividedNum",
						"offset": 0,
						"slot": "2",
						"type": "t_uint256"
					}
				],
				"types": {
					"t_string_storage": {
						"encoding": "bytes",
						"label": "string",
						"numberOfBytes": "32"
					},
					"t_uint256": {
						"encoding": "inplace",
						"label": "uint256",
						"numberOfBytes": "32"
					}
				}
			},
			"userdoc": {
				"kind": "user",
				"methods": {},
				"version": 1
			}
		}
	}
}